:020000041000EA
:1000000000B5324B212058609868022188439860DF
:10001000D860186158612E4B002199600221596106
:100020000121F02299502B49196001219960352056
:1000300000F044F80222904214D00621196600F024
:1000400034F8196E01211966002018661A6600F04E
:100050002CF8196E196E196E052000F02FF8012189
:100060000842F9D1002199601B49196000215960AB
:100070001A491B48016001219960EB211966A021F2
:10008000196600F012F800219960164914480160C1
:100090000121996001BC002800D000471248134993
:1000A000086003C880F30888084703B5996A0420EC
:1000B0000142FBD001200142F8D103BD02B5186610
:1000C0001866FFF7F2FF186E186E02BD00000240BE
:1000D000000000180000070000035F00212200005C
:1000E000F4000018222000A00001001008ED00E03C
:1000F00000000000000000000000000074B24E7A12
:1001000000200420F7010010C3010010C5010010F9
:10011000C1010010C1010010C1010010C101001097
:10012000C1010010C1010010C1010010C701001081
:10013000C1010010C1010010C9010010CB01001065
:10014000CD010010CD010010CD010010CD01001037
:10015000CD010010CD010010CD010010CD01001027
:10016000CD010010CD010010CD010010CD01001017
:10017000CD010010CD010010CD010010CD01001007
:10018000CD010010CD010010CD010010CD010010F7
:10019000CD010010CD010010CD010010CD010010E7
:1001A000CD010010CD010010CD010010CD010010D7
:1001B000CD010010CD010010CD010010CD010010C7
:1001C00000BE00BE00BE00BE00BE00BEEFF3058054
:1001D000103800BEF2EB8871189900104499001095
:1001E0003402001090A31AE700201F49086006C8D7
:1001F00081F3088810471D48006800282FD10DA4FE
:100200000ECC002902D000F012F8F9E71849194A7B
:10021000002000E001C19142FCD1174988471749ED
:1002200088471749884700BEFDE701C901C29A42C5
:10023000FBD3704744990010C0000020C80C002078
:100240004CA5001000000420000004204CA5001064
:10025000001004200010042000000000704709482E
:1002600003F0CEFD0047000008ED00E0000000D0E4
:10027000C80C0020E4AB00201D2B001079090010F1
:10028000DD2A00105756000006005250ABB36053F1
:100290002491001006005250861C03023491001075
:1002A000060052505422A29D409100100500525069
:1002B000DE65F4684CA50010F8B5C0460448054B4F
:1002C00010B5834203D0044B002B00D0984710BDDB
:1002D000C80C0020C80C0020000000000648074998
:1002E000091A8B10C90FC91810B5491003D0044B57
:1002F000002B00D0984710BDC80C0020C80C00206F
:100300000000000010B5074C2378002B09D1FFF73F
:10031000D5FF054B002B02D0044800E000BF0123AD
:10032000237010BDD00D002000000000708100106F
:10033000054B10B5002B03D00449054800E000BF71
:10034000FFF7CCFF10BDC04600000000D40D002018
:100350007081001010B504001022002104F04AFE44
:1003600080235B022360F8235B0263608023DB024F
:10037000A360C0231B03A360200010BD70B5040060
:100380000D00FFF7E7FF2A000832636809490B40B8
:10039000ED012B43120313436360E268D200D208DD
:1003A0008021C9050A43E260034A13401943616092
:1003B000200070BD7F00FEFFFFFFFF9F10B50E4BBA
:1003C0008022D2031A600D4B9B68DB0512D40B4BC5
:1003D000D86880B204F059FC8A21C90504F0F9FB01
:1003E000E821890504F015FC054B196804F0F1FBC0
:1003F000044B186010BDC04680E200E000C004401D
:100400003812002040120020F0B5C64600B586B074
:1004100004000F0016001D001B4B984232D007212C
:10042000280000F0F3FB0123984600932A003900CE
:10043000200007F037FD310002A8FFF79FFF059B62
:10044000124A1340AD021D4305950499104B0B4011
:1004500080221203134304930E4B19400A43802356
:10046000DB0513430493B21D02AB3900200007F0F3
:100470006BFD22684346BB401343236006B080BC3B
:10048000B846F0BD0621CBE700002050FF83FFFFF8
:10049000FFFFF5C1FFFFF50110B50C2906D8036871
:1004A000054A1340C9020B43036010BD034B044AC5
:1004B0000448C32102F016FBFF87FFFF7081001084
:1004C0003C8200109081001000B583B00100002331
:1004D000019310330193134B019301A8FFF7DCFF45
:1004E000019B0C22190091430A0008210A43019242
:1004F0000D4A1A400A4301920C4A1A400A430192DB
:100500000B4A1A401143019109210A430192094AF9
:100510001A400A430192084818400843019003B06A
:1005200000BDC04610801F0033F8FFFF33F8BFFF47
:1005300033F89FFF33F81FFF31F81FFF10B5040099
:100540001F2100F063FB00220021200000F076FB59
:100550000021200000F08CFB10BD000070B584B0BD
:1005600006000C0001AB02AA03A900F0FDFA051E6B
:1005700004D1002C09D1200004B070BD019A029969
:10058000039800F0B5FA2C00F5E70248310002F0BC
:1005900041FBC046E081001000220B4B110289187C
:1005A00088001B188021C9008C4663441B78002BEF
:1005B00004D00132D2B2022AEFD9EDE713029B1820
:1005C0009800014BC018704754130020002201E02E
:1005D0000132D2B2022A0ED80A4B110289188800C1
:1005E0001B188021C9008C4663441B78022BEFD175
:1005F000044BC01804E004488023DB000222C254EC
:100600007047C046541300208C87002070B50C4DF5
:100610002B688024E40000221A55FFF7D7FF2860DA
:10062000084B1B6801229A40A025ED0506496A5037
:100630009B01AC466344D8630323035570BDC04699
:100640006C650020042000200C04000010B5002080
:1006500015E0124903021B189B189B0000245C50F4
:100660000132FF2AF5D90D4B0202121891005B18D6
:100670008022D2009446634402221A70013002287C
:1006800001D80022EDE7002304E0054A990000208C
:1006900088500133FF2BF8D910BDC04654130020F9
:1006A0008C87002010B504F01FFB0022074B03F0DD
:1006B0003FFE0022064B03F062FE03F00DFF020036
:1006C0008023DB001B1A9802104310BD0000F03F8E
:1006D00000F07F4070B50A4C0A4820600A4907F0D4
:1006E000C5FB0A4D28602068012107F0A1FB01002D
:1006F000074B18602A6820680023FFF785FE70BD4D
:100700006865002000002050588200101C64002002
:1007100094AB002010B5012007F0CAFA114C2060FC
:10072000FFF7D2FE104B18401823184323689B0193
:10073000A022D2059446634400221A600B4A5A60F4
:10074000802252009A601861226801239340084A6F
:10075000136008490B2000F0EBFB01210B2000F097
:10076000BDFB10BD04200020F37FE0FF10002050EF
:10077000042400500D06001070B507F03DFC1A204F
:10078000FFF7DCFE1D4A1368E021C9010B401C493C
:100790000B601C4B19681C4B4B401C490B401C49FF
:1007A0000B60012393611B4B13611B49162000F062
:1007B000BFFB0121162000F091FB184B08221A60A4
:1007C000174B00241C6000250BE0FA20400000219C
:1007D00001F070FB134B1968201C04F0FFF9041C96
:1007E0000135114B9D42F0DD1049201C04F0FBF94E
:1007F0000B4B18600E4B00221A6070BD00C0044005
:1008000000D0044008C00440010000010F00000FA8
:1008100008D0044000120300BD03001000E00440B3
:1008200038120020401200200F27000000401C4614
:100830003C120020002304E00C4A9900002088505C
:100840000133802252019342F6DB094B00221A80C9
:10085000084B01321A80084B802212011A80074B84
:10086000074A1A80074B084A1A8070471020002058
:10087000CCAB0020CEAB0020D0AB0020D2AB002010
:10088000AC0D0000D4AB00203C0F000070B500257B
:100890001FE0280004F0F9F9E821890504F0B9F90E
:1008A000041C04F021FA134A134B03F068FD03F013
:1008B0001FFE04F023FA114BAE009851211C201C9E
:1008C00004F08CF9FE21890504F083F90C4B985152
:1008D000013580231B019D42DBD3002107E0094B3A
:1008E0008A00521892009B1800221A7401310F29B5
:1008F000F5DD70BD182D4454FB211940908B00206C
:10090000886500202864002070B50F2809D8054CA0
:1009100085002E18B6003151A1198A60CB600123E1
:100920000B7470BD2864002010B5124B82001218A1
:1009300092009B185A689968DC68091952185A6025
:1009400080231B059A4209D30A4B810009188900AC
:100950005B18F82109068C4662445A60054B8200F8
:1009600011188900C958121892009B18DB889B0047
:10097000585810BD28640020F0B5C64600B582B0B6
:1009800004F04CFD01215148FFF7E8FDFFF7A2FEFE
:10099000FFF75CFEFFF7BEFEFFF738FEFFF7ECFE49
:1009A000FFF774FFFFF746FF494B1A6849490023D8
:1009B0000020FFF7A9FF012398460027FC26B60573
:1009C0006DE06C2819D077280FD1012342465A4098
:1009D000D3B2984609E0301C04F086F93E4A3F4BFA
:1009E00003F0A6FC03F084FD061C2F2F07DC002F6C
:1009F00006DA2F2704E00137F7E7013FF5E7002784
:100A0000FE218905301C04F03BF9002800D00026A7
:100A10000021301C04F02EF9002821D14346002B80
:100A200021D02B4BBA00D2582A4900230020FFF7CF
:100A30006BFF301C04F058F902000B0041460029FE
:100A40001AD0274927480191009704F0DBFCFFF7F3
:100A5000A3FD05008023DB000122C254002418E01E
:100A6000FE26B605DAE71A4BBA00D2581E49002313
:100A70000020FFF749FFDCE71C49E3E70020FFF710
:100A800053FF311C04F0C5F8FFF70CFEA3005851CA
:100A90000134FF2CF2D98023DB000222EA5400202B
:100AA00004F0C4FC0028D2DB6B28A4D089DC2B28FE
:100AB00091D02D2899D1301C04F016F9064A074B25
:100AC00003F02DFC03F014FD061C8EE748E801003E
:100AD000F80A0020886500209A9999999999A93F68
:100AE0001482001020820010908B002018820010C9
:100AF000F0B583B004000D00160000F0D1F8002816
:100B000001D003B0F0BD154F00973B000122012139
:100B1000053001F0C1FD00962B0022000121104894
:100B200001F0C4FE31006943200003F0BDF9040068
:100B30000C4B009300220221042001F0ADFD009433
:100B4000230000220121052001F0A6FD00973B00B3
:100B500002220021062001F09FFDD2E7006CDC029A
:100B600000800240001BB700F0B5DE4657464E46F7
:100B70004546E0B583B080468B4692460193A0235C
:100B80005B0099462AE0013C002C1ED025007D43E5
:100B90002900300003F088F94045F4D129003000E5
:100BA00003F082F90029EED1144B4A4653435A46CA
:100BB000136053461F60019B1C60012003B0F0BC12
:100BC000BB46B246A946A046F0BD013F002F01D06A
:100BD0003C00D9E701235B429C46E1444B460F2B86
:100BE00009D9074E4B465E43064BF218064B9A4214
:100BF000F0D80727EAE70020E0E7C046001BB7006F
:100C0000E02E0000508EF4FF50F80C0010B5830069
:100C1000084A944663441A68402462408034144071
:100C20008022520113431C60C000034B9C46604469
:100C3000416010BD04C001400040014080000B4BEA
:100C40009C46604400290DD00823002A0CD00422C1
:100C50001343026853400C221A4080235B01034374
:100C60001A6070470023F0E70022F1E704C001405A
:100C7000002909D08000094B9C46604480239B01D9
:100C8000034340221A6070478000044B9C46604436
:100C9000C0239B01034340221A60F4E704C00140D3
:100CA000034B1B6802201840431E9841C0B2704796
:100CB00000C00640EFF3108072B6034B1B68002B98
:100CC000FBD0BFF35F8F70472C0100D0BFF35F8F65
:100CD000024B00221A6080F3108870472C0100D06C
:100CE000F8B506000C001500FFF7E4FFE308F7185D
:100CF000F15C07222240012393400B4205D1DBB275
:100D00000B433B70FFF7E2FFF8BD2100280001F024
:100D100081FFF0B583B00600019114001F00FFF7BA
:100D2000C9FF00E00134BC420CD8E308F518F35CBD
:100D30000721214001228A401A42F3D1D2B21A433C
:100D40002A7001E001246442FFF7C0FF002C02DB9F
:100D5000200003B0F0BD019B002BF9D0089801F0F2
:100D600059FF0000002307E0054A9A189200BFF3DC
:100D70005F8F0021116001331F2BF5D97047C046EA
:100D800040000034054A1078431CDBB21370172B67
:100D900002D9130010221A707047C046BC0B002005
:100DA00010B582B00100054C054B00931F2318229B
:100DB0002000FFF7AEFF02B010BDC046701F00203C
:100DC00074820010074B9B68103080001950BFF3ED
:100DD0005F8FBFF35F8F044B0021196082F310888F
:100DE0007047C04600ED00E0240100D010B5038834
:100DF000DA0A1C2A05D15B055B1502335B00C018BB
:100E000010BD034B034A0448B12101F06BFEC046FC
:100E1000908200100C850010A882001010B5091AED
:100E20000B1F0A4A88180A4A904208D8C90706D4F4
:100E30005B105B055B0D0748184380B210BD064B85
:100E4000064A0748A32101F04DFEC046FC070000FA
:100E5000FE0F000000E0FFFFE88200100085001098
:100E6000A882001010B5091A04394A08090B08D1E4
:100E70004905490D064B0B430380064B1343438042
:100E800010BD054B054A0648AB2101F02BFEC046BC
:100E900000F0FFFF00F8FFFF18830010D48400105B
:100EA000A882001001238340034A10681840431EA3
:100EB0009841C0B27047C04600E100E0002904D06C
:100EC000034B1860034B18607047034B1860FBE737
:100ED00080E200E000E100E080E100E010B50123E5
:100EE00083401800FFF7EAFF10BD00000123834094
:100EF000014A13607047C04600E200E0024B9B6865
:100F000010308000C058704700ED00E010B5FFF7CA
:100F1000F5FF002805D0054BC01A2F2803D8012063
:100F200010BD0020FCE70020FAE7C046C00B0020FF
:100F300070B504000D00EFF3108672B60C4B1B6801
:100F4000002BFBD0BFF35F8F2000FFF7D7FF094BCB
:100F5000984201D0A84205D1320029002000FFF7B5
:100F600031FF70BD044B054A0548862101F0BAFDEA
:100F7000240100D0CD01001028830010348500101A
:100F8000A8820010F0B5DE4657464E464546E0B50D
:100F900089B0814601911500EFF3108A72B66D4B4E
:100FA0001B68002BFBD0BFF35F8F6B4B00269E5757
:100FB000002E41DB7400A419A400684824180622FE
:100FC000A256654B1A70664B9A684B4610339B00CD
:100FD000D35898461F00181A2F2839D9614B9845C5
:100FE00030D105AF604B3B80604973009B46981938
:100FF00080005A4B984640440230FFF70FFF78803C
:101000005B4BBB80FF23BB71FD71019B07933300DA
:101010005B449B00434407CF07C301231C43A04606
:10102000524641464846FFF7CDFE09B0F0BCBB46EC
:10103000B246A946A046F0BD4E4B4F4A4F48D72175
:1010400001F050FD4E4B4C4A4C48DE2101F04AFD68
:1010500001380C2102F028FF002912D101239F43FF
:10106000BB463B000027DA79AA4211D9062159561E
:1010700000290CDB4A005218920038491F008B18D7
:10108000F1E7404B3C4A3D48EA2101F02BFD1F00AF
:10109000002F2ED005AB3C4A1A80813A5A80062395
:1010A000FB560293002B17DA384805AB9B46988015
:1010B000029A9A71DD71019A0792381D2100FFF79B
:1010C000ADFEB880BE71254B7200921992009B183C
:1010D0005A4613CA13C3A3E7381DFFF787FE010062
:1010E0007000801980001D4BC0180430FFF796FE79
:1010F000DBE705AF1C4B3B801C49730002939B1937
:101100009B00164A90461A0042440392901CFFF737
:1011100085FE7880039A101D5946FFF77FFEB88040
:101120001B4B5A464146521A524153431B0DBB7149
:10113000FD71019A0792029B9B199B00434407CFC4
:1011400007C3114B5A461380813B538001231C4334
:10115000A04665E7240100D0DBAB0020C00B0020D7
:1011600000ED00E0CD01001000A1FFFFF00B00201A
:1011700001BDFFFF608300101C850010A8820010D5
:1011800088830010B08300100148000001BD0000FA
:10119000AAAA0000F0B5CE46474680B583B0060047
:1011A0000D00EFF3108872B64F4B1B68002BFBD07D
:1011B000BFF35F8F4D4B9A6834001034A300D758AB
:1011C0004B4B9F4207D0AF4200D18BE00197494B78
:1011D000FB1A2F2B09D9424639003000FFF7F2FDE8
:1011E00003B0C0BCB946B046F0BD3000FFF75AFEB0
:1011F000814600213000FFF771FEBFF35F8FEFF3F0
:101200000581002901D08C4211D10123019C9C430E
:101210000020A368AB4212D00622A256002A0DDBA2
:1012200053009B189B00334A2000D418F1E7324B3F
:10123000324A36213248FF3101F054FC2000AB42E3
:1012400049D106256557002D2BDB2A4B6A00521920
:1012500092009B189A68A260DA79E2719B795BB27E
:10126000A371002B0FDA2748A080224B6A00521985
:1012700092009B18244A11789971157049463000E4
:10128000FFF72CFEA7E7680040198000194BC01833
:101290000430FFF7ABFD0100231D1800FFF7BEFD72
:1012A000E2E7002912D100280ED0FF238371174BEB
:1012B000838015490B78A3710E4A154BA41A64411B
:1012C00063431B0D0B70D9E7094FF2E71149201D4D
:1012D000FFF7C8FDD2E7104B084A6A210848FF31E2
:1012E00001F000FC024F76E7240100D000ED00E0A1
:1012F000CD010010C00B002024840010EC840010ED
:10130000A882001001BD0000DBAB002001BDFFFF83
:10131000AAAA0000FA0B00205884001070B5012220
:1013200002432E4BD31A2F2B28D8EFF30583002B23
:101330002BD0EFF3108C72B6294909680029FBD035
:10134000BFF35F8F254C274905002D1B6D41694375
:10135000090D4CB2244989689B00C95891421BD0A1
:101360000021032932D81D4B4A00521892009B18C5
:101370009B795BB2A3421FD00131F2E71B4B1C4AA1
:10138000C7211C48490001F0ADFB1B4B184A9221B4
:101390001848FF3101F0A6FB134A92681749D15053
:1013A000174B1A7882711C70BFF35F8F0C4B0022B1
:1013B0001A608CF3108870BD084B4A005518AD00B8
:1013C0005D19FF26AE710F4AAA80E9E70E4B084A65
:1013D000D1210848490001F085FBC046C00B002020
:1013E000240100D0AAAA000000ED00E060840010F3
:1013F000B8840010A882001088840010CD0100106D
:10140000DBAB002001BDFFFF948400100022044BE1
:1014100002E0044902C30132072AFAD97047C046E4
:1014200000E400E08080808010B582B00100074CAD
:10143000074B0093052300222000FFF76AFC0028D9
:1014400001DB1F23181A02B010BDC046E0AB00201C
:101450009C840010024B9C466144890001607047E7
:101460004000003410B5002B02DB0260436010BD69
:10147000024B034A03483F2101F034FB5085001022
:10148000648600106C85001070B582B006001400F0
:101490001D00FA22920000230698002103F07CFB35
:1014A00002000B0012196B41002B09DB6846FFF7A5
:1014B000D9FF009A019B32607360300002B070BDAA
:1014C00001225242004BF1E7FFFFFF7F10B582B0CF
:1014D000040000F083FD02000B006846FFF7C2FF26
:1014E000009A019B22606360200002B010BD30B5FD
:1014F00085B004000D0002A8FFF7E8FF029A039BE5
:1015000000952000FFF7C0FF200005B030BD10B5EA
:101510000400FFF737FC01002000FFF79BFFFF23CB
:101520002371BFF35F8F10BD10B50400FFF72AFCD5
:1015300001002000FFF78EFFFF232371002363715A
:10154000BFF35F8F10BD0000034B9C4661448900D0
:101550000160BFF35F8F70474000003410B5040096
:101560000120FFF71DFC01002000FFF7EDFF10BD7B
:10157000084B5B6A994209D8064A926A824207D2AE
:10158000994201D0012002E0002000E000207047D5
:101590000120FCE70040054010B500290AD003688F
:1015A0001B7B8B4206D38068054B9C466144090136
:1015B000401810BD034B044A04483C2101F092FA44
:1015C000FFFFFF0F7C860010A0890010A08600108E
:1015D000F8B504001700FFF7DFFF0668456839001B
:1015E0002000FFF7D9FF026843680120AB4201D811
:1015F00002D00020C0B2F8BDB242FBD8F9E700002B
:1016000010B5002B02DB0260436010BD024B034AA1
:1016100003483F2101F066FA508500106C890010E4
:101620006C85001010B582B004000498059912185A
:101630004B41002B09DB6846FFF7E2FF009A019B54
:1016400022606360200002B010BD01225242014BB3
:10165000F1E7C046FFFFFF7F10B5002908D0037BEC
:101660008B4205D300684B005B18033BC01810BDCC
:10167000024B034A0348682101F034FAD88600106F
:1016800048890010F486001010B5437B8B4201D1CD
:10169000012010BDFFF7E0FF8378002B01D100206F
:1016A000F7E70120F5E770B50400857B002D01D137
:1016B000280070BD2900FFF7CFFF4378A373002BEC
:1016C00000D1E3730023837043700370F0E70000E0
:1016D000F8B506000C001500FFF7BEFF0700002C50
:1016E0000DD0002D11D0AC4215D029003000FFF7ED
:1016F000B3FF84703B78002B13D13D70F8BD0A4BCB
:101700000A4A0B486F2101F0EDF90A4B074A0848D5
:10171000702101F0E7F9084B044A0548712101F0F6
:10172000E1F943703D70E9E740870010248900101B
:10173000F48600104C8700105887001070B5060022
:101740000D001400002914D0002A14D043688068CA
:101750009847002806D0220029003000FFF7B8FF84
:10176000280007E02A0021003000FFF7B1FF200029
:1017700000E0100070BD0800FCE7000070B5040038
:101780000D1E0CD0FFF768FF0023837043700370B9
:10179000617B2A002000FFF7D1FF607370BD034B0F
:1017A000034A0448A52101F09DF9C0467087001046
:1017B00038890010F486001070B504000D1E0FD09B
:1017C000FFF762FF00280BD1E17B00290ED1A37B3C
:1017D000002B03D1E37B002B0DD1A573E57370BD06
:1017E000084B094A0948F62101F07CF92000FFF76F
:1017F00033FF4570EBE7064B034A0448FB2101F039
:1018000071F9C0467487001014890010F486001026
:101810009887001010B5002907D003681B7B8B4206
:1018200003D3C0680139401810BD034B034A044874
:10183000412101F057F9C0467C8600100089001054
:10184000A086001070B505000C00080000F0C0FC78
:101850000949200000F000FCFFF794FA074B9C4672
:101860006044800068602C75D0231B061B786B7564
:10187000034BA400E55070BD9119001040000034E6
:10188000706500200A4B1A68EFF3108172B6136876
:10189000002BFCD0BFF35F8F054B1B68BFF35F8F3E
:1018A00000221A6081F3108840BF00200021704799
:1018B00090AB002010B582B0040000F08FFB020056
:1018C0000B006846FFF79CFE009A019B2260636054
:1018D000200002B010BD70B584B0040016001D00D9
:1018E00002A8FFF7E7FF029A039B009601952000EC
:1018F000FFF798FE200004B070BD0000F0B583B083
:10190000070001921D000AAB1C780BAB1E78002C5F
:101910000BD000682100FFF7B7FE002809D0194B53
:10192000194A1A48672101F0DDF80068FFF7BBFE8D
:101930000400002C02D1200003B0F0BD21003800CB
:10194000FFF72AFE019B03604560089B8360099BAB
:10195000C36038682100FFF711FFA042EBD1387D4A
:10196000019A2B0000F0C0FB051E01D0002E04D010
:101970000C9B002BDFD01D70DDE73868210000F0E4
:101980006DFDF5E7AC87001054890010A0860010AB
:10199000F0B5DE4657464E464546E0B58FB00B9053
:1019A0000021794B8200D458894683E02900200029
:1019B000FFF7F2FD804602684368921BBB41002B93
:1019C00009DD43461A685B680B9800F08DFB002325
:1019D000984600268AE0002B01D1002AF1D100218F
:1019E000584600F031FD0700A84215D143461A6859
:1019F0005B680892099343469E68DB689846002E10
:101A000010D029002000FFF705FF037899461B023C
:101A10001F432761002069E05C4B5D4A5D488E21D1
:101A200001F060F85C4B5A4A5A48922101F05AF88A
:101A30002369002B00D177E0BB4219D106980799A2
:101A4000002342428B4100920193089A099B0CA803
:101A5000FFF7E8FD0C9A0D9B0021049101310391E1
:101A600002954146019100962000FFF747FF16E0DE
:101A70004A4B474A4748A12101F034F8069A079B90
:101A8000002B01D1002A52D120682900FFF794FED3
:101A900029002000FFF7BEFE037801330370002306
:101AA00023616268BFF35F8F13608AF3108801209F
:101AB000002861D00CA8FFF7FDFE0C9E0D9F0022B0
:101AC0000023089209936268EFF3108A72B61368D4
:101AD000002BFCD0BFF35F8F23689B465D7B002DFE
:101AE00000D063E700239846002600206368BFF318
:101AF0005F8F00221A608AF31088002ED8D04B46E0
:101B00001F022F4341463800B04706900791626894
:101B1000EFF3108A72B61368002BFCD0BFF35F8F0F
:101B2000079B002B00DA83E7079B002BA6DD2369C8
:101B3000002BA9D0BB4219D10CA8FFF7BBFE0C9A11
:101B40000D9B06980799009001910CA8FFF76AFD7C
:101B50000C9A0D9B0021049101310391029541469D
:101B6000019100962000FFF7C9FE98E70B4B084A49
:101B70000848A42100F0B6FF0FB0F0BCBB46B24647
:101B8000A946A046F0BDC04670650020D48700106D
:101B900084890010A0860010EC870010F8870010E0
:101BA00010B50C4B5B68002B04D00B480A21FFF7E3
:101BB00051FC10BD074C094A20682300102100F099
:101BC000AEFB032000F0FEF903212000FFF73AFEF0
:101BD000EBE7C046080C002090AB0020D1150010A8
:101BE00010B5064B5B68002B01D0044810BD044BB8
:101BF000044A05485E2100F075FFC046080C00202D
:101C000034880010E8880010A0860010F0B5DE4689
:101C100057464E464546E0B58DB0060090461F003B
:101C2000169B9A46179B994618AB1B780793272358
:101C300002AA9446634400221A7021E00100300099
:101C4000FFF7E8FD00783CE00698002B5CD0079B8E
:101C5000002B59D04946D04704000D0003000B4328
:101C600059D0002940DB08A8FFF724FE089A099BF9
:101C70000094019508A8FFF7D5FC089B9846099F9A
:101C80007268EFF3108B72B6136859424B41D9B2A8
:101C90000691002BF8D1BFF35F8F273302AA944639
:101CA000634404930023039302934B4601935346EA
:101CB000009342463B003000FFF720FE0400051E63
:101CC000BCD17368BFF35F8F002119608BF310885C
:101CD000002D17D0272302AA944663441B78002BBB
:101CE000B2D100022043B0E700236242AB41009230
:101CF000019342463B0008A8FFF794FC089B9846D6
:101D0000099FBDE7012040420DB0F0BCBB46B24682
:101D1000A946A046F0BD0698F6E7F0B5C64600B560
:101D200084B00500884616001F000AAB1C78FFF738
:101D300057FF0294019700962A004346FFF766FF7B
:101D400004B080BCB846F0BDF0B5C64600B505008D
:101D50000C1E42D04268EFF3108772B61368002B56
:101D6000FCD0BFF35F8FE6B22B68984631001800B5
:101D7000FFF78AFC00282AD02B69A34213D0240A3B
:101D8000E4B231002800FFF745FD0378A34211D0EB
:101D900000206B68BFF35F8F00221A6087F3108802
:101DA00080BCB846F0BD0E4B0E4A2C210E48FF31C8
:101DB00000F098FE3100404600F050FB0028E8D1CA
:101DC0000A4B084A99210848490000F08BFE2B690C
:101DD000A342DED100232B61DBE70020E0E7C04611
:101DE00058880010D0880010A08600107C88001051
:101DF00010B50400FFF7F4FE2100FFF7A5FF10BDAA
:101E0000407D704730B587B004000D00EFF30583C7
:101E1000002B20D106225242D31712196B418B425C
:101E200002D803D1824201D90022002304A8FFF77F
:101E3000E7FB02A8FFF73EFD02980399049A059B71
:101E4000121A8B41002B0BDC08D02000290000F077
:101E5000D1F807B030BD144800F0DCFE002AF4D001
:101E6000124A0498059900230093FFF756FF0028B3
:101E700013DAEAE70E4B1A68EFF3108172B61368B3
:101E8000002BFCD0BFF35F8F094B1B68BFF35F8F44
:101E900000221A6081F3108820BF04980599FFF78B
:101EA00067FB0028E6D0D0E7808800108518001076
:101EB00090AB002000B583B002000B006846FFF72E
:101EC0000AFD00980199FFF79DFF03B000BD0000D7
:101ED00030B583B005000C00EFF30583002B0FD164
:101EE0000B4A00230093FFF718FF00280BDD20BFEB
:101EF000FFF77EFF28002100FFF73AFB03B030BD5B
:101F0000FFF736FBFAE728002100FFF731FBF5E782
:101F10008518001010B5002B02DB0260436010BD75
:101F2000024B034A03483F2100F0DCFD50850010BE
:101F3000548A00106C85001070B5EFF305801038DE
:101F4000EFF3108C72B6194B1B68002BFBD0BFF35C
:101F50005F8F01221300834015494B6315490B60C5
:101F6000154909780C00C440224213D0104A546A23
:101F7000124A8500AA58944205D3114AAA580E4C19
:101F80009943217007E00A4A031D9B009958995014
:101F9000002200E00022BFF35F8F044B0021196094
:101FA0008CF31088002A00D0904770BD280100D023
:101FB000004005403C700540DFAB0020A0AB002096
:101FC0004412002010B50100024A034B1800FEF72E
:101FD00087FE10BDAC890010D9AB0020044B5B6AB2
:101FE000034A906A1900536A9942F9D17047C04672
:101FF00000400540084B5B6A01E0074B5B6A8B427F
:10200000FBD301E0044B5B6A8B4203D1024B9B6A1A
:102010008342F7D37047C04600400540F0B583B017
:1020200004000D00FFF7DAFF06000F0022002B006E
:1020300092197B41994202D804D1904202D90122DF
:102040005242D3176846FFF765FF00980199FFF7E2
:10205000D1FF03B0F0BD000070B504000E00EFF337
:10206000108572B61B4B1B68002BFBD0BFF35F8F34
:10207000002E1CD02000FEF741FF174B83420BD0EF
:1020800019002000FEF754FF01212000FEF726FF73
:102090000123A340114A1360114BA400E650BFF383
:1020A0005F8F0C4B00221A6085F3108870BD0C4BBB
:1020B000A2000021D1500122A2400A490B7893438B
:1020C0000B7005492000FFF765F800212000FEF79E
:1020D00005FFE4E7280100D0391F001038600540F3
:1020E00044120020DFAB0020F0B5DE4600B584B01E
:1020F0000400150001921E000293FFF76FFF039585
:102100008E4202D84ED185424CD9EFF3108B72B675
:10211000274B1B68002BFBD0BFF35F8F254A177836
:102120000125A540EBB23B431370234B5D63221D99
:1021300092000199D150214AA100029888501B6A4F
:102140002B4212D11C4B1B6C2B4208D00020BFF33A
:102150005F8F174B00221A608BF3108823E0184B17
:10216000184A1948C52100F0BDFCFFF737FF8E4221
:1021700014D802D1039B834210D80E4B1B78BB426C
:102180000ED00D4B1D625D631F2222400123934040
:102190000E4A1360074B1F700120D8E70020D6E7D6
:1021A0000120D4E7012004B080BCBB46F0BDC0468E
:1021B000280100D0DFAB002000400540A0AB00208C
:1021C000D0890010388A0010F489001080E200E005
:1021D000EFF3108C72B60B4B1B68002BFBD0BFF3D8
:1021E0005F8F01238340084A136208490A789A43A3
:1021F0000A70BFF35F8F034B00221A608CF31088C4
:102200007047C046280100D000400540DFAB0020E9
:1022100010B5002908D0037B8B4205D300684B0022
:102220005B18033BC01810BD024B034A03486821EA
:1022300000F058FCD8860010588B0010F48600106F
:10224000F8B506000C001500FFF7E2FF0700002CB0
:102250000DD0002D11D0AC4215D029003000FFF771
:10226000D7FF84703B78002B13D13D70F8BD0A4B2B
:102270000A4A0B486F2100F035FC0A4B074A084810
:10228000702100F02FFC084B044A0548712100F032
:1022900029FC43703D70E9E740870010448B001033
:1022A000F48600104C8700105887001070B50600A7
:1022B0000D001400002914D0002A14D0436880684F
:1022C0009847002806D0220029003000FFF7B8FF09
:1022D000280007E02A0021003000FFF7B1FF2000AE
:1022E00000E0100070BD0800FCE770B50500002399
:1022F000437301338373037BC373012406E021001E
:102300002800FFF785FF0134E4B24470297BA14225
:10231000F5D82800FFF77CFF0023437070BD10B58F
:10232000017342608360FFF7E0FF10BDF0B5C64661
:1023300000B505000C1E03D1200080BCB846F0BDDE
:10234000FFF766FF4678002EF6D031002800FFF731
:102350005FFF477800239846437021002800FFF76D
:1023600057FF43464370320021002800FFF79EFFCD
:10237000040039002800FFF7D9FF020021002800DF
:10238000FFF794FF0400D7E7F0B5C64600B5040098
:102390000D001700002927D0FFF73AFF4378002BE4
:1023A00028D18378002B2BD101782000FFF7BEFFC6
:1023B00006008046002F0AD0E17B002926D1A37BAE
:1023C000002B03D1E37B002B25D1A573E573434696
:1023D000002B26D129002000FFF71AFF00234370AD
:1023E000300080BCB846F0BD114B124A124838216B
:1023F00000F078FB114B0F4A0F483A2100F072FBB6
:102400000F4B0C4A0C483B2100F06CFB2000FFF7FF
:10241000FFFE4570D3E70B4B064A0748422100F008
:1024200061FB31002000FFF7F3FE00238370D1E74A
:102430006C8A0010308B0010748A0010AC8A001077
:10244000D48A00109887001070B504000A00457BFC
:102450002900FFF799FF6073280070BD70B5060072
:102460000C1E40D0437B8B4207D0FFF7D1FE050006
:102470008178002906D1002036E00121FFF7E4FF32
:10248000012031E03000FFF7C3FE0178A1420DD0FA
:102490003000FFF7BDFE4178A1420AD00029F7D1F4
:1024A000124B134A13486B3100F01CFB6B7803701E
:1024B00001E06B7843700023AB706B700122210048
:1024C0003000FFF761FF0200717B814205D03000D0
:1024D000FFF7ECFE7073012006E0074B044A054845
:1024E000712100F0FFFA002070BDC04694840010F6
:1024F000188B0010748A0010F88A001070B5046BF5
:10250000E30701D4200070BD02003032C0239B01DC
:1025100013430A4A1A60456A836AAD01ED18AD0299
:10252000062000F0BDF9064901F0BEFC01002800BC
:1025300001F0BAFC0021FFF771FDE3E701030000A1
:102540004E0E000070B504000E001500FFF7D6FF18
:1025500022002C32E36A5E40354080235B01134346
:102560001D60206370BD000070B505000C000620E2
:1025700000F096F9C000210001F096FCC60908D0D1
:102580000E4B9E4216D87F230340013334005E0871
:1025900000E001246C62AE62002200212800FFF7F7
:1025A000D1FF062000F07CF98000A101891901F01B
:1025B0007BFC70BD0026024CECE7C046FEFF00002D
:1025C000FFFF000010B505394901013AD20011435F
:1025D000002B09D002220A43012B07D0002111430E
:1025E0006E22FFF7AFFF10BD0022F4E70421F6E7EB
:1025F000002909D00A22064B9C46604443425841B8
:10260000044B4000C252704780225200F3E7C0469C
:102610000080FCBFB0AB002070B505000C000620A8
:1026200000F03EF9061E27D0164B9D4226D0802290
:10263000D203154B1A60154B1A60154B9B6811009D
:102640009943FAD100212800FFF7D2FF210028008A
:10265000FFF78AFF06000023012208212800FFF768
:10266000B1FF2A002C3280239B01134310221A60F1
:10267000084B2B630323AB64300070BD802212042F
:10268000D7E7C0460080034000E0004000F0004073
:1026900000C0004001030000F8B5DE4657464E4634
:1026A0004546E0B506000F0015000A9A934250D344
:1026B0001A0E92461B0298460A9A0023404651463B
:1026C00001F030FC81467400A419A4002F4B9C46F5
:1026D00064446368834200D26060331FDBB29B4670
:1026E000012B3CD9C0239B012343802212011A6095
:1026F000274BB200D158002907D0586901F0D4FB0C
:10270000013043001B18033BFDD26D0123685D407F
:10271000E0222A4080235B0123431A605A46012AA3
:1027200028D980239B012343802212011A604B4643
:1027300063604A4600234046514601F0F3FB144BC8
:10274000B60098510120F0BCBB46B246A946A0464F
:10275000F8BD104B104A1148332100F0C3F9012F86
:10276000C0D1C0239B01234303221A60A368DB0767
:10277000FCD5CAE72168794003220A401A60A368A1
:102780000125BD401D42FAD0CBE7C0460080004085
:10279000741F0020648B0010BC8B0010788B00101D
:1027A00030B583B00C2000F011F9FEF779FA00285B
:1027B0000DD0002304E02E4A99002E4888500133A2
:1027C000092BF8D92A4B2C4A5A6203B030BD2B4B47
:1027D00000229A6700F06CF9294B01221A60274BFE
:1027E0005B6C012BFBD1274B03221A60234B9B6BA5
:1027F000012BFBD1013300930433234A01212348E9
:1028000000F054F805230093214A0121214800F0EB
:102810004DF8214B0093002202210420FFF73CFFDA
:102820001E4D00952B00002201210520FFF734FFEB
:10283000104C00942300002200210720FFF72CFFFA
:1028400000942300002200210820FFF725FF0A4BF7
:1028500000932300002200210920FFF71DFF0095AF
:102860002B00002200210620FFF716FFADE7C0462F
:10287000741F0020006CDC021BB7000000800040C9
:102880003CB0004030B00040002F6859008002404A
:10289000008C864700C00240001BB70040597307F8
:1028A000014B8000C0587047741F0020F0B5C64629
:1028B00000B504000E0017001D00374801F0F4FABF
:1028C0008046364BFA18364B9A4239D80100380008
:1028D00001F0EAFA0200103A98235B009A4235D8D8
:1028E0006B1E062B38D8069B013B062B34D83F09BC
:1028F000474537D32D04069B1B031D432368002B3C
:1029000036DB284B9C4244D080235B01264A13606F
:10291000264A1360264A926819009143FAD126602C
:10292000A060221DC0239B01134321221A6022684C
:10293000002AFCDAE56008221A6080BCB846F0BDC7
:102940001C4B1D4A1D48112100F0CCF81C4B1A4AA3
:102950001A48192100F0C6F81A4B174A17481C21CB
:1029600000F0C0F8184B144A1448232100F0BAF8BC
:1029700022683F231340B342C3D1A3681B051B0D3C
:102980008342BED1E368EE22D2021340AB42B8D1FB
:10299000D3E780239B01B9E7001BB70080E84BD346
:1029A00080F8A93200C0024000E0004000F0004082
:1029B00000C00040CC8B0010F08C00102C8C00105C
:1029C0006C8C0010888C0010D48C001080239B002D
:1029D0000343014AD362704700800540024B1A68E6
:1029E000024B5A607047C0461464002000800540C6
:1029F00010B5174B8022D2051A60164B164A1A6082
:102A000000290AD0154BE022D2041A60002809D10F
:102A1000124B802212061A6010BD0D4BE022D20428
:102A20001A60F3E743011B1A9B00181800010C4BB6
:102A3000186080235B04984202D3094B094A1A604C
:102A4000FFF7CCFF054B8022D2051A60E4E7C046B1
:102A500000B0054008200140FCFF010000A0054037
:102A600014640020FFFFFF0010B5030010000C4AA3
:102A70008024E4051460002B0DD001221343094A81
:102A8000094CD461094C5C4014625162936200218C
:102A9000FFF7AEFF10BD034B0022DA61F7E7C04637
:102AA00000B0054000800540D3C007B02D3FF84F6F
:102AB000064BAA2212011A602F22DA60044B054A43
:102AC0001A60024B5B68002BFBDA70470040024043
:102AD0000060024000B0FA0000BEFDE710B5FFF74D
:102AE000FBFF000030B583B00D001900002A0BD0A9
:102AF000074B084C019200932B000200200002F0CB
:102B000081FC0120FFF7E8FF034B1A00F1E7C04604
:102B1000FC8C00100C8D0010088D001070B52B4B34
:102B20002B4A1A602B4B2C4A1A602C4B9A682A4B62
:102B30009343FAD12A4C01E008CC9847294B9C4298
:102B4000FAD3FFF72DFE234B274A1A60234B9B68CD
:102B5000DB43DB01FAD1254B40229A675A671A679B
:102B6000DA66234C09E0234B234A24488721FFF7E8
:102B7000B9FF2000FEF7CBFC0834214B9C4209D260
:102B80002368002BF5D0012BEDD12000FEF7CCFC03
:102B90000834F2E71B4DA9681B4CC022200002F04C
:102BA0002FFAAC60EFF30583002B00D000BEFEF7D8
:102BB000D9F8FEF72BFCFEF7F3FF144C01E008CC2C
:102BC0009847134B9C42FAD370BDC04600E00040CA
:102BD000BFCDFBFE00F00040FE7F3C0000C0004087
:102BE000B00C0020C00C0020FFFFFF0100F00140EE
:102BF000A80C00203C8D0010B48D00105C8D0010DE
:102C0000B00C002000ED00E000000020C00C00200F
:102C1000C80C00200FB400B583B0084802F0C2FB16
:102C2000049B002B07D005A90191180002F0CAFBF4
:102C3000034802F0B7FB0120FFF74EFFA08D001004
:102C4000B08D0010704710B5002802D00B6849689D
:102C5000984710BD0100002007E083001B185B00AF
:102C6000501C08601078C01830380A681378303B60
:102C7000DBB2092BF1D97047F0B5DE4657464E4618
:102C80004546E0B583B093461F000C9B9A460D9CC9
:102C90000E9B99460F9B9B0703D0B8460F0006007A
:102CA00022E00192A34688464E46B9460700B44248
:102CB00007D2551C4B4641462020B84701342A0014
:102CC000F5E73D004F465C46019B9B46B1464646B4
:102CD000B84637002E0007E0013C551C5346185DEE
:102CE00043463900B0472A00002CF5D135003E009C
:102CF00047460F9B9B0707D4100003B0F0BCBB46B0
:102D0000B246A946A046F0BDB0464E46B9462F0091
:102D10005D46531BB342EFD2541C4B464146202024
:102D2000B8472200F5E7F0B5CE46474680B585B0F6
:102D3000944698460C9D0D9C0EAB1B789946109AB4
:102D4000119B129EB7071CD4002B0CD0F7070AD595
:102D50004F46002F02D10C37374204D0013B02E02E
:102D600030272F550134944201D21F2CF8D9F70790
:102D700007D59C4205D21F2C03D830272F5501348C
:102D8000F5E7F70612D5770505D4002C03D0944259
:102D900021D09C421FD00F9A102A32D00F9A022ABB
:102DA00037D01F2C0AD830222A5501341F2C05D8C1
:102DB0004A46002A33D02D222A5501340396029325
:102DC0000194009543466246FFF756FF05B0C0BC2C
:102DD000B946B046F0BD621E012C10D00F9F102FD7
:102DE0000BD014000F9A102AD8D1B206D6D51F2CBA
:102DF000D4D858222A550134D3E7023CCBE714003B
:102E0000C9E7B206EED41F2CECD878222A5501343B
:102E1000C7E71F2CD2D860322A550134C1E77207A8
:102E200003D52B222A550134C8E73207C6D5202204
:102E30002A550134C2E7F0B5DE4657464E464546B0
:102E4000E0B593B081468A46089209931CAB10CB3B
:102E50001B789B461E9D219B9846002C03D1102376
:102E600042469A4390468023DB0046461E40424637
:102E70001A4212D0002C22D000260EE03033D9B2F4
:102E8000771C0AAB99552900200001F00DF8AC42DF
:102E900016D31F2F14D83E0004002900200001F093
:102EA00003F8CBB2092BE9D94246920605D5412158
:102EB000C918C9B20A39C9B2E2E76121F8E72700A7
:102EC00043460693209B05931F9B049303955B4603
:102ED000029301970AAB0093099B089A5146484612
:102EE000FFF721FF13B0F0BCBB46B246A946A0468F
:102EF000F0BDF0B5DE4657464E464546E0B597B0C4
:102F00000A900B910C929A46209B9946219F22AAE7
:102F100013789B46249B0993259C289B98464A46F8
:102F20003A4302D11032934398468022D20045465C
:102F30001540434613420AD04A463A4341D0002541
:102F40002E0053460D934D46099B9A461BE02E00DA
:102F500053460D934D46099B9A4614E03033DAB23E
:102F6000731C99460EAB9A5552462300280039002F
:102F700000F0D8FFBC4226D819D04B461F2B1CD8D6
:102F80004E4605000F00524623002800390000F08D
:102F9000C9FFD3B2092BE1D94246920605D5412299
:102FA000D218D2B20A3AD2B2DAE76122F8E7AA45D9
:102FB000E3D94E460D9B9A4608E04E460D9B9A4635
:102FC00004E0002602E04E460D9B9A4643460693D7
:102FD000279B0593269B0493099B03935B460293CF
:102FE00001960EAB009353460C9A0B990A98FFF783
:102FF0009AFE17B0F0BCBB46B246A946A046F0BD4B
:10300000F0B5DE4657464E464546E0B591B080469F
:1030100089460C929A461A9C1B9D22002B00200088
:10302000290001F00AFA002800D0ECE00122524207
:10303000D44B2000290001F0FBF9002800D0E2E089
:1030400001225242D04B2000290001F0DBF9002878
:1030500000D0D8E0002200232000290001F0D2F99E
:10306000002800D0E4E0069407958023DB001E9A38
:103070001A400D921E9A1A4201D106231C930698FB
:10308000079902000B000892099303000A0002430B
:1030900000D1D9E0080D4005400DBC4EB446604457
:1030A0000A03120B1E00BA4B13431F0001F0D8F99C
:1030B000B84AB94B01F063F9B84AB94B01F038F995
:1030C000089009910022B74B3000390001F027F930
:1030D000B54AB64B01F053F902000B000898099964
:1030E00001F026F901F0D4F9834601F0B9F90600A0
:1030F0000F00AF4AAF4B01F042F90022AE4B01F096
:1031000017F901F0C5F90890AC4AAD4B3000390011
:1031100001F035F906000F00089801F0A1F9A94A5D
:10312000A94B01F02CF902000B003000390001F02E
:10313000F6F806000F0002000B0001F020F90A90DB
:103140000B91089BA14A94466344002100220891F8
:1031500009921B0509930023089332003B003000BD
:10316000390001F0E5F80E900F9132003B0000208D
:103170008021C90501F0D3F806000F000022944B0E
:103180000A980B9901F0DDF80022924B01F0D0F87B
:1031900002000B000A980B9901F0D3F800228E4B25
:1031A00001F0C6F802000B000A980B9901F0C9F86B
:1031B00002000B003000390001F0BAF802000B00E9
:1031C0000E980F9901F0BDF80022714B01F0B0F894
:1031D000089A099B01F0D3F806000F00089609979A
:1031E000069A079B01F024F900282FD001235B42A7
:1031F0009C46E3440022774B3000390001F0A1F8EF
:103200000890099122E01E9B04931D9B03931C9B35
:1032100002930094019553460C9A4946404600F0AB
:10322000FFF811B0F0BCBB46B246A946A046F0BDBF
:103230000021002206910792069480231B069C46DB
:10324000AC446346079310E700239B465B46633319
:10325000C62B20D804261E9B1B0528D5089A099B3F
:10326000190011430FD05D4A5D4B0698079901F094
:10327000D7F800287AD000225A4B0698079901F017
:10328000C1F8002872D01C9B5B4506DD5A469B1A8C
:10329000013B1C9303E00526DDE700231C938023FC
:1032A000DB001E9A1A431E92002600239B461D9B9C
:1032B0009E4265D29F1B02231E9A1A400A921E9AB2
:1032C000134202D0002E00D000275B46002B07D00F
:1032D000089A099B0698079901F033F80690079120
:1032E000002200232000290001F08CF8002800D0E3
:1032F0007CE03D4B1E9A1340049303971C9B029362
:10330000069B079C0093019453460C9A49464046FD
:1033100000F086F8002E00D183E71E9B9B0671D536
:103320004525441C5346020049462800C0475A46DA
:10333000D317D2185A4005230593013E0496002363
:1033400003930A3302935B46DB0F019300925346CB
:10335000220049464046FFF76EFD0A9B002B00D134
:103360005FE7020047460C9E1D9D53E01C9B002B0F
:103370009DD00D9B002B9AD01C9B013B1C9396E784
:10338000002798E7FFFFEF7FFFFFEFFF01FCFFFF44
:103390000000F03FFB799F501344D33FB3C8608BCC
:1033A000288AC63F0000F83F61436F63A787D23F7A
:1033B00071A379094F930A400000E03F1655B5BB51
:1033C000B16B0240EF39FAFE422EE63FFF030000E8
:1033D00000002C4000002440000018402D431CEB4E
:1033E000E2361A3F80842E41FFF7FFFF069C079DBF
:1033F0002200290080200006844661440B000692CA
:10340000079376E765258CE7541C534649462020F0
:10341000B8472200931BAB42F6D3100001E7C04629
:10342000F0B5DE4657464E464546E0B595B00690A7
:10343000079193469946209F1E9A1F9B10001900E2
:1034400000F0FBFF002831D101225242BF4B1E98F1
:103450001F9900F0D7FF002837D101225242BC4B00
:103460001E981F9900F0E4FF00283DD10022B94BBF
:103470001E981F9900F0DCFF002850D10022B64BA7
:103480001E981F9900F0BEFF002848D1002200239B
:103490001E981F9900F0B6FF002850D100239846CF
:1034A000229B5B0500D4B6E0002458E0229B0393E6
:1034B000219B029303230193A84B00934B465A464A
:1034C00007990698FFF7D8FB0EE1229B0393219BF7
:1034D000029304230193A24B00934B465A4607994B
:1034E0000698FFF7C9FBFFE00423229A1A402299AD
:1034F0000B4210D09B4B002A0FD00422229903913B
:1035000021990291019200934B465A4607990698D9
:10351000FFF7B2FBE8E0944BEDE70322EEE7229BD6
:103520000493219B039302971E9B1F9C009301947D
:103530004B465A4607990698FFF762FDD4E01E9A5B
:103540001F9B0020002100F0EAFE1E901F91012326
:103550009846A5E70CAB30221A55013F01341F2CC9
:1035600001D8092FF6D81E981F9900F091FF050089
:1035700000F076FF02000B001E981F9900F0CFFEAE
:103580007A4BFA009B181A685B680A920B9300F05A
:10359000F6FE0890099100F09FFF060000F05CFF26
:1035A00002000B000898099900F0B9FE08900991F3
:1035B00000226F4B00F03CFF00282ED00136300077
:1035C00000F04AFF02000B000A980B9900F020FF60
:1035D000002801D001350026002F2CD1280000F052
:1035E0003FFF02000B001E981F9900F098FE060096
:1035F0000F0000225E4B00F005FF002846D100229C
:103600005B4B3000390000F013FF00283ED1EB0780
:103610003CD501353AE0062746E70022544B08988E
:10362000099900F0EFFE0028D6D1002E01D0F30753
:10363000D2D50136D0E7AA461F2C11D8013F0A2166
:10364000300000F031FC651C30310CAB19550A21FB
:10365000300000F029FC092E0ED906002C00EBE703
:1036600055461F2C0CD87B1E002F09D00CAA3021E8
:1036700011551F000134F4E72B0055461C00F0E7FC
:103680001F2C03D80CAB2E221A5501341F2C10D836
:103690000A21280000F0E0FB661C30310CAB195504
:1036A0000A21280000F0D8FB051E01D03400EDE708
:1036B00034000323229A1340012B1CD01F2C06D860
:1036C0004346002B32D00CAB2D221A550134229BDD
:1036D0000393219B029301940CAB00934B465A46F3
:1036E00007990698FFF7C8FA15B0F0BCBB46B2467A
:1036F000A946A046F0BD219B002B13D04346002BCA
:1037000002D10C3313420FD0219B013B21931900AE
:1037100003E00CAB30221A5501348C42CED21F2C60
:10372000F7D9CBE72199F8E72199F6E7229B5B07C8
:1037300004D50CAB2B221A550134C8E7229B1B077A
:10374000C5D50CAB20221A550134C0E7FFFFEFFFAF
:10375000FFFFEF7F65CDCD4165CDCDC1D08D001090
:10376000D48D0010C48D0010CC8D0010788F001007
:103770000000E03FF0B5DE4657464E464546E0B510
:1037800093B08246884693461193002900D106E300
:1037900000255646119B1878002800D102E3252801
:1037A00009D06C1C5B462A004146B047119B01338F
:1037B00011932500EEE701331193002720E0012348
:1037C0001F4301321192012418E002231F430132EA
:1037D0001192012412E004231F43013211920124AB
:1037E0000CE008231F4301321192012406E010234C
:1037F0001F4301321192012400E00024002C09D063
:10380000119A1378203BD9B21029F6D88B00C449FD
:10381000CB589F46119B1A781300303BDBB2092B23
:1038200010D92A2A13D00B94119B1A782E2A1ED055
:10383000119A1378683BD9B2122959D88B00B9492B
:10384000CB589F4611A8FFF705FA0B90ECE71C9B9D
:103850001A1D1C921B68002B04DB0B93119B013378
:103860001193E1E7022217435B420B93F6E78022B4
:10387000D20017435A1C11925A781300303BDBB226
:10388000092B0BD92A2AD3D11C9B1A1D1C921C6808
:10389000002C08DB119B01331193C9E711A8FFF736
:1038A000D9F90400C4E70024F4E780235B003B431C
:1038B000511C119151786C2901D01F0018E0C023D0
:1038C0009B001F430232119212E080233B43511CA4
:1038D00011915178682901D01F0009E0C0231F43CE
:1038E0000232119204E080235B001F4301321192E7
:1038F000119B1878672816D8252826D30300253B66
:10390000DAB2422A21D89300874AD3589F468023AF
:103910009B001F4301321192EAE780235B001F43A3
:1039200001321192E4E778280FD869280DD30200FC
:10393000693AD2B2012393407C4A13420FD11A064E
:1039400000D507E25B0500D594E16C1C5B462A00BC
:103950004146B047119B0133119325001AE778289F
:103960000AD062283AD06F283BD058283CD0102388
:103970009F43063B9C4601E010239C46582836D0C6
:10398000692803D0642801D00C2297437A0501D519
:103990000122974369282DD064282BD0BA0500D581
:1039A000A2E0FA0500D5C3E07A0600D4D5E01C9A5F
:1039B000111D1C911168FF220A4005970B9B04936F
:1039C0000394634602930023019300925B462A000E
:1039D00041463000FFF72FFA05002AE002239C46FB
:1039E000CCE708239C46C9E710239C46C6E7202263
:1039F0001743C5E7BA0520D4FA0550D47A0666D530
:103A00001C9A111D1C911168FF220A40D017111831
:103A1000414005970B9B0493039463460293D20F96
:103A2000019200915B462A0041463000FFF703FAFD
:103A30000500119B01331193ACE61C9A0732072154
:103A40008A43110008311C91116853689946DB17AD
:103A50000C930D930C9A0D9B100048400E904A4613
:103A600053400F930E980F990C9A0D9B801A994111
:103A70000E900F9108970B9B07930694634604934F
:103A8000002305934B46DA0F0292009001915B46AA
:103A90002A0041463000FFF72CFA0500C9E71C9ABE
:103AA000111D1C911268D0171118414005970B9BEE
:103AB0000493039463460293D20F019200915B46F4
:103AC0002A0041463000FFF7B6F90500B1E73A0693
:103AD00005D51C9A111D1C910023D25E96E71C9AF5
:103AE000111D1C91126891E71C9A073207218A4325
:103AF000110008311C9108970B9B079306946346AD
:103B00000493002305930293536812680092019373
:103B10005B462A0041463000FFF7EBF9050088E7D5
:103B2000DC8D0010208E00106C8E00104190000083
:103B30001C9A111D1C9105970B9B049303946346DB
:103B4000029300230193136800935B462A004146C9
:103B50003000FFF770F905006BE73A0606D51C9AAE
:103B6000111D1C9112681204120C26E71C9A111DDB
:103B70001C91126821E7462819D01C9B07330722A5
:103B800093431A0008321C9204970B9A03920294F2
:103B90001A685B68009201935B462A004146300038
:103BA000FFF73EFC0500119B01331193F2E5202342
:103BB0001F43E2E7672801D0472802D180231B0179
:103BC0001F43452801D0472801D120231F431C9BB8
:103BD0000733072293431A0008321C9204970B9A6A
:103BE000039202941A685B68009201935B462A0074
:103BF00041463000FFF704FA0500119B0133119391
:103C0000C8E502231A003A4091463B421DD00124E8
:103C10001C9B1A1D1C926F1C18785B462A0041469B
:103C2000B0474B46002B14D1119B013311933D003B
:103C3000B0E5571C5B4641462020B04723003A00C0
:103C40005C1C9D42F5D81500E2E701232A000B9D7C
:103C5000F6E73A00B1460B9E06E0571C5B4641462C
:103C60002020C8472C003A00651CA642F5D8170052
:103C70004E46D9E71C9B1A1D1C921B689A46002CC5
:103C800025D101225242534601E001330A0019783E
:103C9000002902D0511E002AF7D152469B1A8022D9
:103CA000D200390011408946174202D0A34200D900
:103CB000230002221100394010913A4209D02A0013
:103CC000250057469A4633004E46994621E0220089
:103CD000D9E72A004546A04606E0541C5B46290069
:103CE0002020B0473B0022005F1C0B999942F4D87A
:103CF0004446A8463B00250057469A4633004E46A8
:103D0000994606E01D000137541C5B464146C847F2
:103D100022003878002804D0002EF4D06B1E002D2D
:103D2000F0D1150053464E46109A002A03D1119B3C
:103D3000013311932EE50B9F2A0006E0551C5B46CC
:103D400041462020B04723002A005C1C9F42F5D842
:103D50001500ECE721233B431C9A111D1C911268AE
:103D600005930823049303940833029300230193DB
:103D700000925B462A0041463000FFF75CF80500E0
:103D8000119B0133119305E56C1C5B462A004146EB
:103D90002520B047119B013311932500FAE40B4B0A
:103DA0009A46F5E4B2465D450DD35B465A1E5B4626
:103DB00041460020D047280013B0F0BCBB46B246B5
:103DC000A946A046F0BD2A00F1E7C046452C0010E8
:103DD00000B585B0029003910121044800931300BF
:103DE0004A4202A9FFF7C6FC05B000BD472C0010EF
:103DF00001480421014B1847300C0020213E0010DF
:103E000010B5010018231B8814221088984710BD94
:103E100010B5010018231B8816221088984710BD82
:103E2000F0B5C64600B507000E00002501239846F0
:103E300000E00135B5420AD2AC003C192068FFF71A
:103E4000DFFF20600028F4D100239846F1E74046C8
:103E500080BCB846F0BD0000124A936F9B0815D293
:103E60009066D166002905D0FFE7FFE7FFE7516FB5
:103E7000106F704704B580210906C2175140002811
:103E800000D0C84304F024F9002104BDF0B5146E3D
:103E9000556E576F166FFFF7E3FF14665566576749
:103EA0001667F0BD000000D0114A936F9B0813D233
:103EB00010665166002905D0FFE7FFE7FFE7516F65
:103EC000106F704704B5002801D00020C04304F0F3
:103ED000FFF8002104BDC046F0B5146E556E576F53
:103EE000166FFFF7E5FF1466556657671667F0BD56
:103EF000000000D094464A4A926F9208624601D26E
:103F000028E0C046F0B5464E346E756E776F366F5A
:103F100000F020F89446424A1466556657671667C3
:103F20006246F0BD94463E4A926F9208624601D2C4
:103F300054E0C046F0B53A4E346E756E776F366F0A
:103F400000F04CF89446364A146655665767166773
:103F50006246F0BD002B24DB11D000293EDA00B50B
:103F6000C943404200D1013100F038F8C943404212
:103F700000D10131DB43524200D1013300BD002AA0
:103F8000EBD1002801D1002905D00020C90FC907B5
:103F900001D1C043410800B504F092F8002200238B
:103FA00000BD00B500290ADBDB43524200D10133DA
:103FB00000F014F8C943404200D1013100BDC943AB
:103FC000404200D10131DB43524200D1013300F0C5
:103FD00005F8DB43524200D1013300BD002923D153
:103FE000002B18D1002A0CD0BC460D4F38667A66DB
:103FF00000210023FFE7FFE7FFE77A6F386F67468E
:104000007047002801D00748010000B504F058F8B7
:104010000022002300BD02000B0000200021704799
:10402000000000D0FFFFFFFF002B00D0BFE0130C0B
:1040300028D1002AE7D080B4114F39667A66FFE7AD
:10404000FFE730B4040C7B6F396F1B0423433B66DE
:104050007A66FFE7FFE7FFE7C04684B27B6F3D6FFC
:104060001B0423433B667A66FFE7FFE7C046002355
:104070002C042D0C7A6F386F00196941B0BC704761
:10408000000000D0F0B594460025140E01D11202B4
:104090000835140F01D112010435940F01D192009B
:1040A0000235D40F01D152000135D40B0134254F14
:1040B0007C66254C3C660E0C93B2FFE7FFE7FFE7FA
:1040C0003C6F6643360C7703BE467343DF0B5B04DD
:1040D000C01AB941130C7343DB18C91ACE086643E2
:1040E000360CB64493B273431F0F1B01C01AB9417B
:1040F000130C73431F0B1B05C01AB941860D8F02A9
:104100003E436643360C092D24DB520A7243801A63
:104110007703460A6643360C16235B1BDE40DF40FE
:10412000BF1964466643821B70460435063301009E
:10413000D940A840C01900D30131A24206D20023C1
:10414000F0BD0000000000D0FFFFFFFF121B013098
:10415000F3D3F1E709277F1BFE406446A2B2724306
:10416000801A00D20139220C7243130C1204821AF5
:1041700099410B007046043513370100F940A840FF
:10418000801900D30131002B02D1A2420AD2F0BD26
:10419000013000D30131121BFAD2013BF8D1A24207
:1041A00000D2F0BD013000D30131121BF7E7F0B5AA
:1041B0001C0C00D080E00CB400251C0A04D11B02AA
:1041C000160E3343120208351C0B04D11B01160FC7
:1041D0003343120104359C0B04D19B00960F3343EB
:1041E00092000235DC0B02D192185B4101351C00B4
:1041F000971864410134464F7C66464C3C660E0C71
:10420000FFE7FFE7FFE7C0463C6F6643360C7703E6
:10421000BE4697B27743C01B00D20139C01B00D203
:1042200001399FB27743C91BC91B170C77437E0422
:10423000FF0B801BB941CE086643360C0C2D33DBD7
:10424000B644120B1F053A431B0B97B27743C01BB2
:1042500000D201399FB27743C91B170C77433E0444
:104260003F0C801BB941860D8F023E4366432927D0
:104270007F1BFE400C3D7746AF40BF1930BCA2B259
:10428000ABB272437343801A9941220C7243130CF0
:104290001204801A994102000B000137001BA9414A
:1042A000F9D2781E0021F0BD0C277F1BFE40774617
:1042B0007F0BAF40FF19E0E700245D1C07D0144FCF
:1042C0007D663966FFE7FFE7FFE7FFE73C6F95B2E2
:1042D0009EB265436643401BB141150C1E0C6543FD
:1042E000664336042F0C3E432D04401BB1419942D6
:1042F00004D202000B0020000021F0BD01D1904249
:10430000F7D3801A994101349942F2D3F6E70000BD
:10431000000000D0FFFFFFFF48404140484018B474
:104320001B4B5B68FC46019308BD04DF0F46001081
:1043300018B4174B1B68FC46019308BD00DF1946F3
:1043400000109446134A926F920809D2624618B43C
:104350000F4BDB68FC46019308BD0CDFD148001011
:104360000C4AF0B5146E556E576F166F6246FFF724
:10437000EEFF084A1466556657671667F0BD18B415
:10438000034B9B68FC46019308BD08DF754700108E
:1043900088850020000000D0FFB5504042405040CA
:1043A00059404B40594000E0FFB5154F4C00640D9B
:1043B00003D0BC4204D10C0314D80020090D090518
:1043C0005C00640D03D0BC4204D11C030AD8002257
:1043D0001B0D1B0501264B4009D44B4003D58B42D6
:1043E00000D18242FFBD9942FCD19042FFBD0B43F8
:1043F000DB1803431343F5D0C9434918FFBD000040
:10440000FF07000000B5FFF7CFFF804100BDC046A9
:1044100000B5FFF7C9FF01D9002000BD012000BD94
:1044200000B5FFF7B9FF01D9002000BD012000BD94
:1044300000B5FFF7B1FF804100BD012040054A00F3
:10444000121804D85A00121801D800207047012011
:1044500070470020704700000021002805D17047F8
:10446000C1174840401AFAD0C90713B5064B1B685C
:1044700098470CBC441CA2401005120B0349091BB1
:1044800009051943114310BD888600201F04000050
:1044900010B54C00620D8023D218DB00D21A5B05E8
:1044A0007E2A10DD9E3A13DACC1709034908194316
:1044B0005242D140640001341532202A05DAD0403E
:1044C0000843604310BD002010BD0846604310BD86
:1044D000C80FC018013810BD18B4044B5B6AFC4605
:1044E000019308BD24DF814A001000008885002068
:1044F00018B4044BDB6FFC46019308BD7CDF014B15
:10450000001000008885002070B513231C78012C52
:1045100012D0012C12DC214B214A93642148FFF771
:104520006FFC214B186070BD1C491D4A98008150DA
:1045300001331F2BF8D9ECE70023FAE71B48FFF7FC
:1045400067FC05001A48FFF763FC023803789B00FC
:104550007F2B09DD12488022290000F051FD022C3A
:1045600008D0022CDADCD6E7124B134A134832216A
:10457000FEF7B8FA124B1A88B5231B029A4209D1EA
:10458000104B1A88104B9A4204D1104B1A88104BCA
:104590009A42E6D00020FEF73DFBC046D54500100C
:1045A000888500204C33000088860020534400009A
:1045B00053460000C88F0010649000101C9000103B
:1045C00054380000D8380000494600009C380000EC
:1045D0005946000007B56046002800D100BE01889A
:1045E0000A0A0230DF2AFAD1C9B2820804D302884B
:1045F00040880004104300E00068024A50500390D5
:1046000007BD0000888500200FB403BC0CBCF0B5CA
:104610000124E407634000E0F0B50C0DCF0F661EE7
:104620003605891B640503D3C943404200D30131D9
:10463000640D03D0661CF60A07D0E41B00207F003F
:10464000791C89078912803C24031D0DDF0F6E1E23
:1046500036059B1B6D0503D3DB43524200D3013368
:104660006D0D03D06E1CF60A07D0ED1B00227F00F3
:104670007B1C9B079B12803D2D032F1B661B58D470
:10468000A446202E46DA20371400BC401D00BD4051
:10469000F24033412A4380185941CB0F05D0C9431A
:1046A000C043002264425041514162464D0D28D121
:1046B0000D0D07D100281FD0241940414941013A6E
:1046C0000D0DF9D0640006D3013000D30131002C68
:1046D00001D140084000013A0BD4941CE40A04D1F3
:1046E00012051144DB071944F0BDD907204B1943CB
:1046F00000E0D9070020F0BD0029DDD1002CDBD17E
:10470000F0BD0132C6074008CD0728434908002EF6
:10471000E1D0D9E73C2E29DA203E40371400BC40D6
:1047200000D00124F24014431A00BB401C43D317AD
:10473000ACE7AC46202F08DA20360400B4400D0068
:10474000B540F84039412843A5E73C2F0CDA203F1B
:1047500040360400B44000D00124F840044308006F
:10476000B1400C43C117EAE710001900002494E798
:104770000000F07FF0B50C0D661E3605891BE60AB9
:104780006405640D02D0651CED0A04D000200121EF
:104790000905803C2403A4461C0D671E3F05DB1B56
:1047A000E70A6405640D02D0651CED0A04D00022FE
:1047B00001231B05803C24037740644497B484B2F2
:1047C00096B27443070C7E43150C6F4380B2684366
:1047D000361802D3012000043F183004350C0019AC
:1047E0007D41844688B29AB250430C0C62431F0C40
:1047F0007C438EB27E43921902D301263604A4195B
:104800001604170C3618674101BC81B29AB25143A5
:10481000040C62431B0C5C4380B25843121802D351
:104820000120000424181004130C401863412D18B3
:104830005E410020474106BC88B293B258430C0C3D
:104840006343120C544389B251435B1802D30121D4
:104850000904641819041A0C091862416D185641AC
:104860000020474118BCF902720D1143F0026A0D95
:104870001043ED020A0D03D16D1940414941013B3E
:10488000124E9B1B7600B3420ED26D0007D301304F
:10489000002671416646354301D1400840001B05A2
:1048A000C918E4072144F0BD0BDA013306D1013009
:1048B00004D101314F0D01D04908F2E7E107002092
:1048C000F0BD013631050020EBE70000FF030000DA
:1048D000F0B51C0D671E3F05DB1BE70A6405640D80
:1048E00002D0661CF60A04D0002201231B05803C7E
:1048F0002403D0252D060026F6432E661E096E667B
:10490000CE0FF619B44649004F0D02D07E1CF60AB0
:1049100003D000200021403F3F033E1BB600B444BB
:10492000013F7F05C91B49082E6F013676089C029E
:10493000950D25437543ED137543AD1301356D108A
:10494000F603761B0CB4CC02450D2C43A2B2B3B2D5
:104950005A43270C7B43350C6F43A4B26C431B199D
:1049600002D3012424043F191C041D0CA4187D410A
:1049700024196D41009A91B2ACB26143170C7C438B
:104980002B0C5F4392B25A43A41802D301221204A3
:10499000BF182204230C52187B41019C6C431B1945
:1049A000520ED9010A434401A01A81B2B2B2514356
:1049B00003145A43360C734387B27743D617D21980
:1049C00000277E4136049B191704160C7F185E41A0
:1049D0007316ED18F301002680337541A90F06D137
:1049E0006400690AE8055B0A184309D22FE0042233
:1049F000944480337541A90AA8059B0A184326D31D
:104A0000404149412404009A019B0D005543641B19
:104A10004343E41A95B286B27543170C7E43030CE8
:104A20005F4392B25A43B61802D301221204BF1850
:104A30003204330C52197B4152429C41002C02D467
:104A40000022013051414008CA071043490802B012
:104A50006246D7079210084BD218084B9A4203D2ED
:104A600012058918C919F0BD0020002A01DC39009F
:104A7000F0BD01331905F5E7FD030000FE07000056
:104A8000002200B5203200F004F8080000BD00004C
:104A900000220B150AD410B5944600F05FF81414E8
:104AA000013400DA0021CB17144C204700200021EC
:104AB00070476244343A0CD40C2A07DA040091405F
:104AC000904052422032D440214310BDD843D943B4
:104AD00010BD203207D40C4694405242203211417E
:104AE000D040204310BD0800C917203203D45242E1
:104AF0002032104110BD1800190010BDB34A00103B
:104B00004A00520D144BD21A13DDFF2A1EDAD205C9
:104B1000CB0FDB071A43C300400F0903490A0843C0
:104B200010435B0001D301D0013070474308FBD232
:104B3000704702D0C80FC00770470A031213013232
:104B4000F8D1420F072AF5D1012200E0FF22C80F59
:104B500000028018C0057047800300000A0DCC0FCA
:104B6000531E1B05C91A520503D3C943404200D343
:104B70000131520D03D0531CDB0A07D0121B002059
:104B80006400611C89078912803A1203014BD21A12
:104B900070470000FF03000051434343C9188C468F
:104BA000110C83B24B4310B4040C614392B280B237
:104BB000504362431C041B0C001910BC59411304E0
:104BC000120CC018514161447047000048404140F8
:104BD000484000239C46114B5B68184700239C46C5
:104BE0000E4B1B6818470E4A936F9B0804D2002394
:104BF0009C460A4BDB681847F0B5146E556E576F2C
:104C0000166FFFF7F4FF064A146655665767166776
:104C1000F0BD00239C46014B9B6818478C86002002
:104C2000000000D007B548404140484001E0C04680
:104C300007B54200120E03D0FF2A03D1420218D852
:104C4000C00DC0054A00120E03D0FF2A03D14A024C
:104C50000FD8C90DC9050122414005D4414001D5F5
:104C6000814207BD884207BD0143491801D0C043B6
:104C7000001807BD00B5FFF7DBFF804100BDC0464F
:104C800000B5FFF7CFFF804100BD491A002807D1CA
:104C900008467047C10FC90700D54042002817D009
:104CA000F44603B40B4B1B68984706BC81409E3802
:104CB0004042803107D20B0607D04900490AC0059F
:104CC0001043084360470130F8E7490A8902F5E7D5
:104CD000704700008886002000239C46014B1B6B18
:104CE000184700008C860020034BDB6FFC461847FA
:104CF0007CDFB54F001000008C8600204100090EBB
:104D0000862904DA00239C46044BDB6B18470449D0
:104D100000B500F030F902BC8E46F3E78C86002027
:104D2000DB0FC94070B513231E782A48FFF770F8CF
:104D30000500012E11D0012E09DDAB1E1B789B0052
:104D40007F2B40DD24488022290000F059F92348B8
:104D5000FFF756F8224B186070BD1F4854222900F7
:104D600000F04EF91F4B1A881F4B9A421CD1A72303
:104D70009B011A881D4B9A4216D11D4B1A881D4B58
:104D80009A4211D11C4B1A8894239B019A420BD151
:104D90001A4B1A881A4B9A4206D11A4B1A681A4BA8
:104DA0009A4201D1152307E01848FDF733FF184C4C
:104DB000094A99008C5001331F2BF8D9144B064A2D
:104DC0001362D361B7E7134B134A14484221FDF72E
:104DD00089FEC046534600008C8600204C330000FC
:104DE00088860020EE290000C40F0000C20D0000DC
:104DF000962B0000C0B50000182B0000CC2A000044
:104E000010B50000FC2C000051ED8764088D0010E7
:104E1000814F001078900010F4900010AC900010BA
:104E2000F0B5C64600B505000F00161E98461BDDFE
:104E3000C91101204042FFF737F800220EE00C2391
:104E40006C1244431D21C91A0C41013464109D4069
:104E5000210079436D1A9A401219F61A002E05DDC9
:104E60000C2EECDC3300EBE70020E6E7BD4201DB73
:104E7000ED1B0132BD4201DBED1B0132002D07DBD2
:104E80004346002B00D01A60280080BCB846F0BD15
:104E9000013AED19F4D5ED19013AF1E7F0B5CE4636
:104EA000474680B583B01600C30F9946C30DFF2453
:104EB000234045026D0A8022120490461543CF0F0D
:104EC000CA0D14404902490A42460A439046002E40
:104ED00001D000213160FF2B41D0002C42D0002BAB
:104EE00047D0FF2C40D0611E99423DDC23D04A467A
:104EF000002A00D06D421A1B01AB41462800FFF783
:104F00008FFF4300434503DC07D1019BDB0704D53A
:104F10004346C01A019B01330193002F02D0019B2D
:104F20005B420193002E01D0019B33609621091B47
:104F3000FFF7D2FE18E0454516DD4B46002B06D1A3
:104F400043465800281A012301930C00E5E7434625
:104F50005800401B01235B4201930C00DDE7FF205A
:104F6000C00501E0FF20C00503B0C0BCB946B04693
:104F7000F0BD0020F8E710B50022FFF78FFF10BD4D
:104F800007B56046002800D100BE01880A0A023039
:104F9000DF2AFAD1C9B2820804D30288408800040B
:104FA000104300E00068024A5050039007BD000023
:104FB0008C860020C30FDB0741000A0E07D0FF2AB2
:104FC00008D00909054A8918194340077047190094
:104FD000002070470249C918FAE7000000000038B5
:104FE0000000F07F01480421014B1847400C0020CD
:104FF000213E0010014B1B6818470000400C0020A8
:10500000014B5B6818470000400C0020084B5B6AAE
:10501000994209D8064A926A824207D2994201D03F
:10502000012002E0002000E0002070470120FCE7A2
:105030000040054010B50300080011001B689847A8
:1050400010BD0000F8B507000D001600437D002BD1
:1050500002D0002400200CE00368110028009847CB
:105060002DE03B7D10E03B68154802219847601C0D
:105070000134B44214DA002CF3DD2B19013B1B7808
:105080000D3B5A425341DBB22A5D0A2AF0D1002B74
:10509000EED1A042E7DA3B68211A28189847E2E7E8
:1050A000B04203DA3B68311A28189847002E06DD13
:1050B000AD19013D2B780D3B5A4253413B75F8BD6C
:1050C000DC91001070B505000368002B16D00C4B66
:1050D0001C6805E0290004C92000FFF7B3FF24691C
:1050E000002C09D02368002BF9D0064B1B68002B3D
:1050F000F0D0A342F3D1EDE700232B6070BDC04692
:10510000082000201060002070B505000C000B681E
:10511000802B05D023685A1C2260E418257170BDCD
:105120000800FFF7CFFFF5E710B5002B02DB0260A8
:10513000436010BD024B034A03483F21FDF7D2FCF8
:1051400050850010E09100106C85001010B582B001
:105150000400FCF743FF02000B006846FFF7E4FF82
:10516000009A019B22606360200002B010BD000025
:1051700070B582B0060014001D00FA2292000023D0
:1051800006980021FFF708FD02000B0012196B4181
:10519000002B09DB6846FFF7C7FF009A019B3260CE
:1051A0007360300002B070BD01225242004BF1E743
:1051B000FFFFFF7F30B585B004000D0002A8FFF7A8
:1051C000C5FF029A039B00952000FFF7D1FF200046
:1051D00005B030BD10B582B00400049805991218CE
:1051E0004B41002B09DB6846FFF79EFF009A019BAD
:1051F00022606360200002B010BD01225242014BC8
:10520000F1E7C046FFFFFF7F70B584B004001600D1
:105210001D0002A8FFF79AFF029A039B00960195D2
:105220002000FFF7D7FF200004B070BDF8B5CE46D0
:10523000474680B507000E00914698461BE0A368DC
:10524000002B04D0310038009847002818DC24696E
:10525000002C06D00C4D2D68002DF0D0A542F6D1C3
:10526000EDE748464146FFF7D1FE002806D1012070
:105270000021FCF7D3FE054B1C68E9E70120404202
:10528000C0BCB946B046F8BD106000200820002020
:1052900000B583B0FA2189006846FFF78BFF009ABA
:1052A000019B024802F034FF03B000BDA80C0020AF
:1052B00010B5024802F0FCFE10BDC046A80C00204C
:1052C000F0B5CE46474680B583B006000D00904647
:1052D0001C00FFF7DDFF81466B1C05D0002C08D0B9
:1052E000194F1A4B1C6807E0300002F09FFE0500C2
:1052F000F4E7174FF5E72469002C17D02368002B3B
:10530000F9D0144B1B68002B01D0A342F3D12A0023
:1053100031002000B8474346002BECD06B46D91D26
:105320000A230B7001222000B847E4E74B46002B0C
:1053300007D16B1E9D41E8B203B0C0BCB946B04670
:10534000F0BDFFF7B5FFF4E735500010082000204E
:105350004550001010600020094A01E010331A0087
:105360001368002B08D08342F8D1002907D10369C4
:1053700013600023036102E0002900D01060704731
:105380000820002010B5064B1C6801E098472469EE
:10539000002C03D06368002BF8D1F8E710BDC0469D
:1053A0000820002070B5050002F040FE0400002334
:1053B000012201002800FFF783FFFFF7E3FF200031
:1053C00070BD000070B5A2B004000E00FFF760FFD2
:1053D0000500002301930A483300220001A9FEF7CB
:1053E000F7FC040001A8FFF76DFEFFF7CBFF002DCF
:1053F00002D1200022B070BDFFF75AFFF9E7C04686
:10540000095100100FB400B583B004A901C901917E
:10541000FFF7D8FF03B008BC04B0184710B500F080
:1054200023F900F0E3FA012010BD000000B585B0BB
:10543000020000236846FFF7E7FE009A019B012166
:1054400003A8FFF7F3FE002802DB03D003AB1878B4
:1054500005B000BD034B044A9E2104484900FDF7F6
:1054600041FBC0467C880010C89100108891001054
:1054700010B582B00C00144BC3185A425341134A62
:105480005B009B5E8B4204D06B46DA1D14700021DA
:1054900015E06B46DA1D0D23137000210029F3D1AE
:1054A00083699B06FCD41378036001310132F5E770
:1054B00083699B06FCD41378036001310132002913
:1054C000F6D002B010BDC0460080FCBFB0AB0020DB
:1054D00082B000226B46D91D06E08369DB06FCD44E
:1054E00003680B7001320131002AF6D06B46D8797F
:1054F00002B0704770B506000D00002405E0315D74
:10550000034B1868FFF7B4FF0134AC42F7DB70BD02
:10551000B4AB0020F8B506000D00002705E07C1CA8
:10552000F719FFF7D5FF38702700AF4204DA0E4AAB
:1055300010688269D206F2D50C4A1268002A0CD093
:10554000094A12685021916310003430526B1839A7
:1055500011408022520102431160002F01D0380017
:10556000F8BD033FFBE7C046B4AB0020601F00203E
:1055700010B5064B1B68002B06D0054A12680021A7
:105580009163044A1068984710BDC046601F002010
:10559000B4AB0020681F002070B505000E001C4B46
:1055A0001A681C4BD31859424B4114331C00002875
:1055B0001ED0194B1B68002B04D0174B1D60174BD6
:1055C0001E6070BD16492000FBF7B2FC01212000CF
:1055D000FBF784FC0E4B1B6850229A631900343190
:1055E0005B6B183A1A4080235B010B431A60E4E7B7
:1055F000094B1B68002BE0D000239363002120009F
:10560000FBF76CFC06492000FBF7C4FDD5E7C0465C
:10561000B4AB00200080FCBF601F0020681F00208A
:105620007155001070B50D001C000D4B1860002A5C
:105630000BDA002C0EDA0A4B18682900FCF7ECFF95
:1056400008480121FFF788FE70BD02211000FBF71A
:10565000DDFAEEE702212000FBF7D8FAEBE7C046BF
:10566000B4AB0020500C002010B5064B1B78064B45
:105670001B78E1210123002249020448FFF7D2FFF1
:1056800010BDC0463C9900103899001000400340FE
:1056900070470000014B00221A707047DCAB0020FD
:1056A0004B79FF2B0CD18B79002B0BD1CB79012BB4
:1056B0000AD1082A0AD98A78054B1A70092000E015
:1056C000002070470020FCE70020FAE70020F8E700
:1056D000DCAB00200120704770B504000D000348CA
:1056E000FEF78EFB0300290020009847554200007A
:1056F00010B5012926D1117953791B020B431249A8
:1057000009788B4201D000201DE05378012B03D093
:10571000022B10D0002016E09178D3781B02194399
:10572000DB0506D54B0A012098407F231940FFF77F
:10573000D3FF0020F9E7642200210020FDF794F94F
:10574000012000E0012010BDDCAB0020012303702C
:10575000004870473892001010B50A784B781B0249
:1057600013438A7812041A43CB781B0613439622FC
:10577000D200934200D010BD00210800FFF7ACFF1B
:10578000024B1860024B19607047C046641F00202E
:105790006C1F002010B5002B02DB0260436010BDBF
:1057A000024B034A03483F21FDF79CF95085001046
:1057B000C89200106C85001010B582B00400FCF790
:1057C0000DFC02000B006846FFF7E4FF009A019B06
:1057D00022606360200002B010BD000070B582B08E
:1057E000060014001D00FA229200002306980021F2
:1057F000FFF7D2F902000B0012196B41002B09DBF5
:105800006846FFF7C7FF009A019B32607360300063
:1058100002B070BD01225242004BF1E7FFFFFF7F53
:1058200030B585B004000D0002A8FFF7C5FF029A4D
:10583000039B00952000FFF7D1FF200005B030BD8D
:1058400010B582B004000498059912184B41002B42
:1058500009DB6846FFF79EFF009A019B22606360A8
:10586000200002B010BD01225242014BF1E7C046B8
:10587000FFFFFF7F10B5024B1878FBF737FB10BD19
:10588000DDAB00200268EFF3108172B61368002BC5
:10589000FCD0BFF35F8F41607047000070B50F4BC5
:1058A0001B68002B16D00D4C2000FFF7EBFF0C4BB4
:1058B00000221A7021686368BFF35F8F0A6083F368
:1058C000108800240025074B1878FBF70FFB2000F9
:1058D000290070BDFA24A4000025F4E7206400200C
:1058E000DEAB0020DDAB0020F0B587B00400160071
:1058F0001D000EAB1F7804A8FFF75EFF049A059BFE
:105900000096019504A8FFF79BFF049A059B029758
:105910000D9901910C9900912000FCF777F907B0DF
:10592000F0BDF0B5C64600B584B005008846160047
:105930001F000AAB1C78FCF753F9029401970096FC
:105940002A004346FFF7D0FF04B080BCB846F0BD44
:1059500010B582B01948002102F0C2FB002822D104
:10596000174B1B68002B26D0154C2000FFF78AFF31
:10597000144A137801214B40DBB2012111702168D8
:105980006268BFF35F8F0020086082F31088002BED
:1059900011D00D4A012300930023FA20800000213A
:1059A000FFF7BFFF07E001200021404201F090F81F
:1059B000024802F07DFB02B010BDC04698AB00204B
:1059C00020640020DEAB00209D58001010B5054B70
:1059D0001868002804D0044B1968002200F0A2FDCA
:1059E00010BDC046641F00206C1F002010B582B09F
:1059F000D0231B061C68FCF7F3F8FCF701FAA04261
:105A00002CD1234B1B7801F031FD2248FBF77FFDA1
:105A10000120FBF709FD204C20702049FF2318408E
:105A2000FBF786FA20780121FBF758FA0520FBF7EF
:105A30006DFA041E18D01A4900220520FBF7A2FABD
:105A4000FBF7A0F90100174B1800FBF77DFD164886
:105A50000121FFF781FC200002B010BD134B144A56
:105A60001448B221FDF73EF8134A012300930023A6
:105A7000FA2080000021FFF754FFC443E40F0948D7
:105A800008220021FFF7B6FA002CE4D0DFE7C04679
:105A90004099001098AB0020DDAB00205159001058
:105AA0007558001020640020680C002058840010F5
:105AB000B8920010509200109D58001010B50020B0
:105AC00001F0FEF910BD000030B583B004000D00F8
:105AD000FFF7F4FF002830D0002001F00DFA002875
